:100000000C949E000C94C6000C94C6000C94C60080
:100010000C94C6000C94C6000C94C6000C94C60048
:100020000C94C6000C94C6000C94C6000C94C60038
:100030000C94C6000C94C6000C94C6000C94C60028
:100040000C9434050C94C6000C9402050C94DC044A
:100050000C94C6000C94C6000C94C6000C94C60008
:100060000C94C6000C94C60007634236B79BD8A711
:100070001A39685618AEBAAB558C1D3CB7CC5763CD
:10008000BD6DEDFD753EF6177231BF000000803F7B
:1000900008000000BE922449123EABAAAA2ABECD97
:1000A000CCCC4C3E00000080BEABAAAAAA3E000009
:1000B0000000BF000000803F000000000008417801
:1000C000D3BB4387D1133D190E3CC3BD4282AD2B38
:1000D0003E68EC8276BED98FE1A93E4C80EFFFBE30
:1000E00001C4FF7F3F00000000000000000024006A
:1000F00027002A0000000000250028002B0004042F
:1001000004040404040402020202020203030303BF
:10011000030301020408102040800102040810209B
:100120000102040810200000000800020100000382
:10013000040700000000000000007E0511241FBE1F
:10014000CFEFD8E0DEBFCDBF11E0A0E0B1E0E4EF3B
:10015000F5E102C005900D92A234B107D9F722E073
:10016000A2E4B1E001C01D92A830B207E1F710E0AF
:10017000CEE9D0E004C02197FE010E94F20ACD39F9
:10018000D107C9F70E94C8050C94F80A0C94000026
:10019000AF92BF92CF92DF92EF92FF920F931F9395
:1001A000CF93DF936C017B018B01040F151FEB01D3
:1001B0005E01AE18BF08C017D10759F06991D6018A
:1001C000ED91FC910190F081E02DC6010995892BFC
:1001D00079F7C501DF91CF911F910F91FF90EF90BB
:1001E000DF90CF90BF90AF900895FC01538D448D68
:1001F000252F30E0842F90E0821B930B541710F0D2
:10020000CF96089501970895FC01918D828D9817DE
:1002100061F0A28DAE0FBF2FB11D5D968C91928DB6
:100220009F5F9F73928F90E008958FEF9FEF0895E7
:10023000FC01918D828D981731F0828DE80FF11DB0
:10024000858D90E008958FEF9FEF0895FC01918DCB
:10025000228D892F90E0805C9F4F821B91098F73C4
:100260009927089583E591E00E94260121E0892BDA
:1002700009F420E0822F089580E090E0892B29F096
:100280000E94320181110C9400000895FC01A48D9C
:10029000A80FB92FB11DA35ABF4F2C91848D90E0A8
:1002A00001968F739927848FA689B7892C93A0898B
:1002B000B1898C91837080648C93938D848D981315
:1002C00006C00288F389E02D80818F7D80830895A8
:1002D000EF92FF920F931F93CF93DF93EC0181E096
:1002E000888F9B8D8C8D98131AC0E889F98980813D
:1002F00085FF15C09FB7F894EE89FF896083E88970
:10030000F98980818370806480839FBF81E090E061
:10031000DF91CF911F910F91FF90EF900895F62EEE
:100320000B8D10E00F5F1F4F0F731127E02E8C8D88
:100330008E110CC00FB607FCFACFE889F9898081CD
:1003400085FFF5CFCE010E944601F1CFEB8DEC0F7A
:10035000FD2FF11DE35AFF4FF0829FB7F8940B8FEA
:10036000EA89FB8980818062CFCFCF93DF93EC0154
:10037000888D8823B9F0AA89BB89E889F9898C918D
:1003800085FD03C0808186FD0DC00FB607FCF7CF49
:100390008C9185FFF2CF808185FFEDCFCE010E9449
:1003A0004601E9CFDF91CF91089590E0FC01EA5D2D
:1003B000FE4F2491FC01EE5EFE4F3491FC01E250B1
:1003C000FF4FE491EE23C9F0222339F0233001F1ED
:1003D000A8F4213019F1223029F1F0E0EE0FFF1FCF
:1003E000EC50FF4FA591B4918FB7F894EC91611147
:1003F00026C030953E233C938FBF08952730A9F047
:100400002830C9F0243049F7809180008F7D03C0E7
:10041000809180008F7780938000DFCF84B58F77C5
:1004200084BDDBCF84B58F7DFBCF8091B0008F770B
:100430008093B000D2CF8091B0008F7DF9CF3E2B5A
:10044000DACFCF93DF9390E0FC01EE5EFE4F249174
:1004500082509F4FFC0184918823D1F090E0880F57
:10046000991FFC01E651FF4FA591B491FC01EC509E
:10047000FF4FC591D49161110EC09FB7F8948C9134
:10048000E22FE0958E238C932881E223E8839FBF9F
:10049000DF91CF9108958FB7F894EC91E22BEC9314
:1004A0008FBFF6CF089590E080E00895FC010190A1
:1004B0000020E9F73197AF01481B590BBC0180EFD1
:1004C00091E00C94C8008F929F92AF92BF920F93CD
:1004D0001F93CF93DF93CDB7DEB7A1970FB6F894F4
:1004E000DEBF0FBECDBF19A2423008F44AE08E0134
:1004F0000F5D1F4F842E912CB12CA12CA5019401CE
:100500000E94D00AE62FB901CA01EA30F4F4E05D96
:10051000D801EE938D01232B242B252B79F790E026
:1005200080E0109719F0CD010E945602A1960FB6F7
:10053000F894DEBF0FBECDBFDF91CF911F910F9119
:10054000BF90AF909F908F900895E95CE1CFCF93DB
:10055000DF93EC0160E08E810E94D50161E08E8125
:100560000E94D50160E08E810E94D5018BE891E068
:100570000197F1F7DF91CF910895CF92DF92EF923B
:10058000FF920F931F93CF93DF936C017C0187E061
:10059000E80EF11CD0E0C0E0062F10E0B8010C2EF0
:1005A00002C0759567950A94E2F76170F701819131
:1005B0007F010E94D5012196C430D10579F7C6018B
:1005C000DF91CF911F910F91FF90EF90DF90CF902F
:1005D0000C94A702CF92DF92EF92FF920F931F939A
:1005E000CF93DF93EC01F62E642F8C810E94D5010E
:1005F0008D818F3F19F060E00E94D5010F2D10E032
:100600008F8584FF25C06E0187E0C80ED11CF12CB8
:10061000E12CB8010E2C02C0759567950A94E2F79B
:100620006170F60181916F010E94D501FFEFEF1A11
:10063000FF0A88E0E816F10461F7CE01DF91CF915F
:100640001F910F91FF90EF90DF90CF900C94A70235
:10065000B80184E0759567958A95E1F7CE010E940F
:10066000BD026F2DCE01DF91CF911F910F91FF90B1
:10067000EF90DF90CF900C94BD0240E0682F80EFA8
:1006800091E00C94EA02CF93DF93823029F49091A9
:10069000FF0198609093FF0180930302109204027F
:1006A00080E48093050280E18093060280E58093D8
:1006B000070261E08091F4010E9421028091F5011E
:1006C0008F3F19F061E00E94210261E08091F60104
:1006D0000E942102C0EFD1E09E01205F3140809155
:1006E000FF0184FD0BC084E090E0219628173907B4
:1006F00044F461E08E810E942102EECF88E090E018
:10070000F4CF8BE39DE00197F1F760E08091F40175
:100710000E94D50160E08091F6010E94D501809190
:10072000F5018F3F19F060E00E94D5018091FF0133
:1007300084FD39C063E080EF91E00E94BD02CBE40C
:10074000D6E4CE010197F1F763E080EF91E00E94DB
:10075000BD022197F1F763E080EF91E00E94BD02B6
:1007600083E592E00197F1F762E080EF91E00E946B
:10077000BD028091FF0180620E943D0384E080936E
:1007800000028CE00E943D0381E00E943D038BE368
:100790009FE10197F1F782E08093010286E0DF910B
:1007A000CF910C943D0380620E943D038BE496E45C
:1007B0000197F1F78091FF0180620E943D0383E57C
:1007C00092E00197F1F78091FF0180620E943D0362
:1007D000D0CF90910302691710F06FEF690FE62FE9
:1007E000F0E0E051FE4F9489890F80680C943D033E
:1007F00041E00E94EA0281E090E008954F925F920A
:100800006F927F928F929F92AF92BF92CF92DF9220
:10081000EF92FF920F931F93CF936B017C01742E85
:10082000AC019B010E949609882399F08EE191E02A
:10083000CF911F910F91FF90EF90DF90CF90BF90DD
:10084000AF909F908F907F906F905F904F900C949F
:10085000560246015701E894B7F82FEF3FEF4FE7F4
:100860005FE7C501B4010E94960981110DC02FEF09
:100870003FEF4FE75FE7C501B4010E947C07181600
:100880001CF482E291E0D4CF2FEF3FEF4FE75FE41B
:10089000C701B6010E94D40818161CF486E291E044
:1008A000C7CF2FEF3FEF4FE75FECC701B6010E94C4
:1008B0007C0787FDF3CF20E030E0A901C701B60136
:1008C0000E947C0710E000E087FF0CC041E06DE271
:1008D00080EF91E00E94EA02F7FAF094F7F8F094C2
:1008E00001E010E0C0E060E070E080E09FE37C1693
:1008F00041F020E030E040E251E40E948107CF5F08
:10090000F6CFA70196010E9410074B015C010E94DF
:10091000F3072B013C014AE00E946302080F191FF4
:10092000CC23C9F1C301B2010E9422089B01AC0192
:10093000C501B4010E940F074B015C0141E06EE26A
:1009400080EF91E00E94EA020F5F1F4FC15018F143
:1009500020E030E040E251E4C501B4010E94D90832
:100960002B013C010E94F3074B01B12CA12C4AE062
:10097000C501B4010E946302080F191FC501B4012B
:100980000E9422089B01AC01C301B2010E940F0723
:100990004B015C01DBCFC801CF911F910F91FF90FC
:1009A000EF90DF90CF90BF90AF909F908F907F900F
:1009B0006F905F904F9008951F920F920FB60F9215
:1009C00011242F933F934F935F936F937F938F9354
:1009D0009F93AF93BF93EF93FF9383E591E00E94C2
:1009E0004601FF91EF91BF91AF919F918F917F91C0
:1009F0006F915F914F913F912F910F900FBE0F908C
:100A00001F9018951F920F920FB60F9211242F93DB
:100A10008F939F93EF93FF93E0916301F0916401B3
:100A20008081E0916901F0916A0182FD1BC0908193
:100A300080916C018F5F8F7320916D01821741F05F
:100A4000E0916C01F0E0ED5AFE4F958F80936C01C0
:100A5000FF91EF919F918F912F910F900FBE0F906B
:100A60001F9018958081F4CF1F920F920FB60F92AE
:100A700011242F933F938F939F93AF93BF938091B4
:100A8000470190914801A0914901B0914A013091EC
:100A9000460123E0230F2D3758F50196A11DB11D06
:100AA000209346018093470190934801A093490108
:100AB000B0934A018091420190914301A091440179
:100AC000B09145010196A11DB11D80934201909303
:100AD0004301A0934401B0934501BF91AF919F9111
:100AE0008F913F912F910F900FBE0F901F901895EF
:100AF00026E8230F0296A11DB11DD2CFE3E5F1E058
:100B00001382128288EE93E0A0E0B0E084839583A4
:100B1000A683B78384E091E09183808385EC90E0A5
:100B20009587848784EC90E09787868780EC90E0B7
:100B3000918B808B81EC90E0938B828B82EC90E0A8
:100B4000958B848B86EC90E0978B868B118E128E22
:100B5000138E148EE0EFF1E01382128286E191E0B1
:100B6000918380838CE084838FEF85838BE0868301
:100B700085E0878384E0808783E0818782E08287C5
:100B80001386148615861686178681E00C94430317
:100B9000789484B5826084BD84B5816084BD85B558
:100BA000826085BD85B5816085BD80916E00816064
:100BB00080936E001092810080918100826080930A
:100BC000810080918100816080938100809180000C
:100BD0008160809380008091B10084608093B10037
:100BE0008091B00081608093B00080917A00846031
:100BF00080937A0080917A00826080937A0080915D
:100C00007A00816080937A0080917A008068809376
:100C10007A001092C10060E08EE00E94210282E022
:100C20000E944303E0916301F091640182E08083BC
:100C3000E0915F01F09160011082E0916101F0911B
:100C400062018FEC808310926B01E0916701F0915B
:100C5000680186E08083E0916501F0916601808102
:100C600080618083E0916501F091660180818860F8
:100C70008083E0916501F0916601808180688083C6
:100C8000E0916501F091660180818F7D808310E4A1
:100C9000C0E0D0E010937C0080917A008064809363
:100CA0007A0080917A0086FDFCCF80917800609177
:100CB0007900762F682F072E000C880B990B0E9465
:100CC000240820E030E040EA50E40E94D90820E007
:100CD00030EC4FE754E40E9481074B015C01AC010A
:100CE0009B0160E070E080EA90E40E94810720E0D0
:100CF00030E040E85FE30E940F0720E030E04AE781
:100D000054E40E94D9086B017C0120E030E040E00F
:100D10005FE3C501B4010E947C0787FF73C023E332
:100D200037EC42E855E4C701B6010E94810727E08D
:100D30003CE043E55FEB0E94460960934F017093EE
:100D40005001809351019093520123EC35EF4CE117
:100D500051E460914F017091500180915101909147
:100D600052010E94810720E030E04AE754E40E94EB
:100D7000D90860934B0170934C0180934D0190937F
:100D80004E0160E080E00E94E9038AE291E00E9467
:100D9000560260914F0170915001809151019091E4
:100DA000520142E00E94FE0360E08CE00E94E903F1
:100DB00083E391E00E94560261E080E00E94E90333
:100DC00087E391E00E94560260914B0170914C01C3
:100DD00080914D0190914E0142E00E94FE0361E03E
:100DE0008CE00E94E9038EE391E00E945602209776
:100DF00009F450CF0E943201882309F44BCF0E949E
:100E0000000048CF26E636EB4BEB55E4C701B601B0
:100E10000E94810727EA38E946EB5FEB8CCF5058F8
:100E2000BB27AA270E9427070C949A080E948C08C7
:100E300038F00E94930820F039F49F3F19F426F40B
:100E40000C9489080EF4E095E7FB0C948308E92FD5
:100E50000E94AB0858F3BA17620773078407950717
:100E600020F079F4A6F50C94CD080EF4E0950B2E45
:100E7000BA2FA02D0B01B90190010C01CA01A001EC
:100E80001124FF27591B99F0593F50F4503E68F147
:100E90001A16F040A22F232F342F4427585FF3CF88
:100EA000469537952795A795F0405395C9F77EF459
:100EB0001F16BA0B620B730B840BBAF09150A1F0A2
:100EC000FF0FBB1F661F771F881FC2F70EC0BA0F28
:100ED000621F731F841F48F4879577956795B795B0
:100EE000F7959E3F08F0B0CF9395880F08F09927AB
:100EF000EE0F9795879508950E945F0808F481E0AA
:100F000008950E9495070C949A080E94930858F03F
:100F10000E948C0840F029F45F3F29F00C9483086C
:100F200051110C94CE080C9489080E94AB0868F308
:100F30009923B1F3552391F3951B550BBB27AA2792
:100F400062177307840738F09F5F5F4F220F331FCC
:100F5000441FAA1FA9F335D00E2E3AF0E0E832D094
:100F600091505040E695001CCAF72BD0FE2F29D097
:100F7000660F771F881FBB1F261737074807AB0769
:100F8000B0E809F0BB0B802DBF01FF2793585F4FDE
:100F90003AF09E3F510578F00C9483080C94CE08EB
:100FA0005F3FE4F3983ED4F3869577956795B795C0
:100FB000F7959F5FC9F7880F911D9695879597F9CB
:100FC0000895E1E0660F771F881FBB1F6217730744
:100FD0008407BA0720F0621B730B840BBA0BEE1F59
:100FE00088F7E09508950E94B30888F09F5798F01D
:100FF000B92F9927B751B0F0E1F0660F771F881F1E
:10100000991F1AF0BA95C9F714C0B13091F00E9437
:10101000CD08B1E008950C94CD08672F782F88276C
:10102000B85F39F0B93FCCF3869577956795B3955E
:10103000D9F73EF490958095709561957F4F8F4FCD
:101040009F4F0895E89409C097FB3EF490958095D2
:10105000709561957F4F8F4F9F4F9923A9F0F92F7E
:1010600096E9BB279395F695879577956795B795FC
:10107000F111F8CFFAF4BB0F11F460FF1BC06F5FE2
:101080007F4F8F4F9F4F16C0882311F096E911C0F4
:10109000772321F09EE8872F762F05C0662371F015
:1010A00096E8862F70E060E02AF09A95660F771F29
:1010B000881FDAF7880F9695879597F90895990F05
:1010C0000008550FAA0BE0E8FEEF16161706E80712
:1010D000F907C0F012161306E407F50798F0621B33
:1010E000730B840B950B39F40A2661F0232B242B08
:1010F000252B21F408950A2609F4A140A6958FEF27
:10110000811D811D089597F99F6780E870E060E078
:1011100008959FEF80EC089500240A941616170690
:1011200018060906089500240A94121613061406D8
:1011300005060895092E0394000C11F4882352F03B
:10114000BB0F40F4BF2B11F460FF04C06F5F7F4FF3
:101150008F4F9F4F089557FD9058440F551F59F0DA
:101160005F3F71F04795880F97FB991F61F09F3F94
:1011700079F087950895121613061406551FF2CFBD
:101180004695F1DF08C0161617061806991FF1CF0D
:1011900086957105610508940895E894BB27662734
:1011A0007727CB0197F908950E945F0808F48FEF25
:1011B00008950E94EC080C949A080E948C0838F05C
:1011C0000E94930820F0952311F00C9483080C944E
:1011D000890811240C94CE080E94AB0870F3959FE7
:1011E000C1F3950F50E0551F629FF001729FBB271E
:1011F000F00DB11D639FAA27F00DB11DAA1F649FBA
:101200006627B00DA11D661F829F2227B00DA11D6C
:10121000621F739FB00DA11D621F839FA00D611DF2
:10122000221F749F3327A00D611D231F849F600D13
:10123000211D822F762F6A2F11249F5750409AF03C
:10124000F1F088234AF0EE0FFF1FBB1F661F771FC8
:10125000881F91505040A9F79E3F510580F00C9493
:1012600083080C94CE085F3FE4F3983ED4F3869550
:1012700077956795B795F795E7959F5FC1F7FE2B33
:10128000880F911D9695879597F90895FA01EE0FAD
:10129000FF1F309621053105A1F16115710561F43B
:1012A0008038BFE39B0749F168949038810561F06D
:1012B0008038BFEF9B0741F099234AF5FF3FE105D6
:1012C0003105210519F1E8940894E795D901AA237D
:1012D00029F4AB2FBE2FF85FD0F310C0FF5F70F47E
:1012E000A695E0F7F73950F019F0FF3A38F49F77F8
:1012F0009F930DD00F9007FC9058089546F00C94E2
:10130000890860E070E080E89FE308954FE79F77E9
:101310005F934F933F932F930E94460A2F913F91E3
:101320004F915F910E94D9080C94A3090E945F0815
:10133000880B990B089529F416F00C9483080C94EB
:10134000CD080C9489080E94B308A8F39638A0F73A
:1013500007F80F92E8942BE33AEA48EB5FE70E9424
:10136000EF080F920F920F924DB75EB70F920E9447
:101370008E0AE8E6F0E00E94D5094F915F91EF9167
:10138000FF91E595EE1FFF1F49F0FE57E0684427E7
:10139000EE0F441FFA95E1F74195550B0E94080A9C
:1013A0000F9007FE0C94FC090895DF93CF931F93D1
:1013B0000F93FF92EF92DF927B018C01689406C03D
:1013C000DA2EEF010E94EC08FE01E894A591259128
:1013D000359145915591A6F3EF010E942707FE0133
:1013E0009701A801DA9469F7DF90EF90FF900F91D1
:1013F0001F91CF91DF9108959B01AC0160E070E0F7
:1014000080E89FE30C9481070C9483080C94C20A33
:101410000E94B308D8F39923C9F3940F511DA3F385
:101420009150504094F059F0882332F0660F771FA6
:10143000881F91505040C1F79E3F51052CF7880FEF
:10144000911D9695879597F908955F3FACF0983E6A
:101450009CF0BB27869577956795B79508F4B160A2
:101460009395C1F7BB0F58F711F460FFE8CF6F5F9A
:101470007F4F8F4F9F4FE3CF0C94CE0816F00C9404
:10148000C20A0C94890868940C9483080E94B308DB
:10149000A8F39923C1F3AEF3DF93CF931F930F9378
:1014A000FF92C92FDD2788232AF02197660F771F27
:1014B000881FDAF720E030E040E85FEB9FE38839EF
:1014C00020F0803E38F021968F770E941007E0E9E7
:1014D000F0E004C00E941007EDEBF0E00E94D50997
:1014E0008B01BE01EC01FB2E6F5771097595771FBB
:1014F000880B990B0E94240828E132E741E35FE35F
:101500000E94EC08AF2D9801AE01FF900F911F9142
:10151000CF91DF910E9427070C949A08FA01DC0111
:10152000AA0FBB1F9B01AC01BF5728F4222733270A
:101530004427507820C0B75190F4AB2F0024469533
:1015400037952795011CA395D2F3002071F0220F47
:10155000331F441FB395DAF30ED00C940F0761309C
:101560007105A0E88A07B94630F49B01AC016627F3
:10157000772788279078309621F020833183428323
:10158000538308959F3F31F0915020F487957795CC
:101590006795B795880F911D9695879597F908954A
:1015A000A1E21A2EAA1BBB1BFD010DC0AA1FBB1F67
:1015B000EE1FFF1FA217B307E407F50720F0A21BD9
:1015C000B30BE40BF50B661F771F881F991F1A9446
:1015D00069F760957095809590959B01AC01BD0170
:1015E000CF010895EE0FFF1F0590F491E02D0994AF
:0415F000F894FFCF9D
:1015F400000000006801C800F500B50126010401DF
:10160400180100000000F803C800530252026E6182
:101614006E00696E66006F766600467565727A6163
:101624003A200020204E005065736F3A200020209D
:0216340067004D
:00000001FF
